:020000040800F2
:10000000F80B0020050100080D0100080F01000891
:10001000110100081301000815010008000000008C
:1000200000000000000000000000000017010008B0
:1000300019010008000000001B0100081D01000854
:100040001F0100081F0100081F0100081F01000810
:100050001F0100081F0100081F0100081F01000800
:100060001F0100081F0100081F0100081F010008F0
:100070001F0100081F0100081F0100081F010008E0
:100080001F0100081F0100081F0100081F010008D0
:100090001F0100081F0100081F0100081F010008C0
:1000A0001F0100081F0100081F010008552B000850
:1000B000E92B00081F010008652D00081F0100083A
:1000C0001F0100081F0100081F0100081F01000890
:1000D0001F010008DD3400081F0100081F0100088F
:1000E0001F0100081F0100081F010008DFF810D0E1
:1000F00000F0AAFB00480047713F0008AFF3008002
:10010000F80B00200648804706480047FEE7FEE758
:10011000FEE7FEE7FEE7FEE7FEE7FEE7FEE7FEE7B7
:1001200085280008ED00000840EA01039B0703D082
:1001300009E008C9121F08C0042AFAD203E011F826
:10014000013B00F8013B521EF9D27047F0B480EA3F
:100150000102D40F4200B2EB410F02D20246084620
:1001600011464A0042D0C30DDDB2C1F3C752AD1AE9
:10017000202D35DAC1F3160141F4000204B15242D8
:10018000C5F1200602FA06F12A411044B3EBD05F14
:1001900023D0C4B1012DA0EBC35009DCF0BC4FF05B
:1001A000004202EAC352DBB200F5000000F0EBB9F6
:1001B000400000F1807000EBC350A0F1807040EA75
:1001C000D170490009E0490841EAC071A0EBC35071
:1001D00000F50000400800EBC350F0BC00F0CAB9C5
:1001E0006142012202EB4101001BF6E7F0BC7047BF
:1001F00081F00041AAE780F00040A7E780EA010211
:1002000010B502F00043400022D04A001FD0010E7A
:1002100001EB1261C0F35600C2F3560240F4000035
:1002200042F40002A0FB022000047F39140400D035
:10023000401C50EA124001D44000491EC2B20C06D4
:1002400004EBD010401C4008802A02D003E00020BC
:1002500010BD20F00100002900DA0020184310BD75
:1002600030B480EA010202F0004530F0004221F093
:10027000004013D090B1C30DD40DC2F31601C0F3EA
:100280001600E41A41F4000140F400027D3491426A
:1002900001D3641C00E04900002C02DA30BC0020CD
:1002A00070474FF400000023914201D3891A0343A1
:1002B00040084FEA4101F7D151B1914202D14FF0CC
:1002C000004105E002D24FF0010101E06FF00101B1
:1002D00003EBC450284430BC00F04CB92DE9FE4F6C
:1002E00081EA030404F0004421F0004100944FF03F
:1002F000000B23F0004350EA01045ED052EA0304ED
:100300005BD0C3F30A54C1F30A552C44A4F2F3346E
:100310000194A0FB0254C1F3130141F48011C3F313
:10032000130343F4801301FB024400FB034E840AD1
:10033000970A44EA815447EA8357A4FB0768029569
:100340008D0A05FB07854FEA932C04FB0C54270507
:10035000029D4FEA065847EA1637B5EB08056EEBE3
:10036000070C870E920E47EA811742EA8312A7FB19
:100370000201B6EB0B0164EB00042B0D43EA0C33D6
:100380005E1844EB1C50DA465146E7FB0201C5F308
:1003900013044FEA0B3343EA14534FEA0432019C2F
:1003A00043EA0603A4F10C040294009CCDE900B4D6
:1003B00000F026F903B0BDE8F08F00200146F9E710
:1003C0002DE9F04D81EA030404F0004B21F00045D3
:1003D00014464FF0000A23F0004150EA050220D0F5
:1003E00054EA01021DD0C5F30A570246C5F31303B0
:1003F000C1F31300C1F30A5640F4801543F480138F
:10040000A7EB0608101BD64608F2FD3873EB050073
:1004100002D308F1010801E092185B41B8F1000F26
:1004200003DA00200146BDE8F08D00204FF4801172
:10043000064684460EE0171B73EB050705D3121B17
:1004400063EB050306434CEA010C49084FEA300010
:1004500092185B4150EA0107EDD152EA030012D035
:1004600082EA040083EA0501084305D0101BAB4172
:1004700006D20122002306E000224FF0004302E0F2
:100480006FF0010253101AEB06004CEB085110EB11
:100490000A0041EB0B01BDE8F04D00F0A2B8C10F1E
:1004A00080EAE0700844CA079623002100F06BB888
:1004B00096230022114600F066B800F0004220F0BA
:1004C0000040C10DC0F3160040F400007F2901DA9E
:1004D00000207047962903DCC1F19601C84001E075
:1004E00096398840002AF4D04042704700F000421C
:1004F00030F000400AD0C10D01F56071C0F3160064
:1005000042EA0151C20840071143704700200146EA
:10051000704701F0004330B421F0004150EA01027D
:1005200006D00A0DA2F56072C1F31301002A02DCA5
:1005300030BC00207047440F44EAC104C100E018F9
:1005400030BC00EBC25000F015B80000002801DB01
:10055000C0F10040002901DBC1F100418142704738
:10056000002801DBC0F10040002901DBC1F100419E
:10057000884270470029A8BF7047401C490008BF47
:1005800020F00100704710B4B0FA80FC00FA0CF0C3
:1005900050EA010404BF10BC704749B1CCF12004FB
:1005A00021FA04F411FA0CF118BF01212143084388
:1005B000A3EB0C01CB1D4FEA00614FEA102042BFB4
:1005C000002010BC704700EBC35010440029A4BFAA
:1005D00010BC7047401C490008BF20F0010010BC4F
:1005E000704710B5141E73F1000408DA401C41F185
:1005F000000192185B411A4301D120F0010010BDA7
:100600002DE9F04D92469B4611B1B1FA81F202E01C
:10061000B0FA80F22032904600F028F904460F46E6
:1006200040EA0A0041EA0B0153465A46084313D0F8
:10063000114653EA010019D0C8F14002504600F0BB
:1006400024F905460E4650465946424600F00EF93A
:10065000084305D0012004E020463946BDE8F08D6E
:100660000020054346EAE0762C4337430A986305A9
:10067000E40AA0EB08000022FD0A44EA47540A30CD
:1006800002D500200146E9E7010510196941DDE9BD
:10069000084500196941BDE8F04DA2E72DE9FE4F7C
:1006A000804681EA0300C00F0C46009021F0004113
:1006B00023F00045B8EB0200A94105D2404621468F
:1006C00090461C460B46024623F00040104347D09C
:1006D000270DC7F30A00C3F30A510290401A019094
:1006E00040286BDAC3F3130040F4801B0098924655
:1006F00020B10023D2EB030A63EB0B0B01985946A0
:10070000C0F14002504600F0B1F806460D46504692
:100710005946019A00F0C9F810EB08006141002425
:1007200087EA115284EAE7731A4340D0009A62B311
:10073000019A012A4FEA075215DC001B61EB020106
:100740004FF0004202EA0752CDE90042001C41F599
:10075000801132462B46FFF753FF03B0BDE8F08F00
:1007600040462146F9E7001B61EB0201001C41F500
:10077000801300185B412018A2F5001747EB030116
:1007800040EAD570B6196D4111E06D084FEA3606A2
:1007900045EAC0754FEA0752001B61EB0201001CDD
:1007A00041F5801149084FEA3000001951413246A5
:1007B0002B4603B0BDE8F04FFFF713BF00980122AE
:1007C00040000023D0EB020263EBE0730098214667
:1007D0004FEAE074B8EB000061EB0401E9E783F055
:1007E00000435BE781F0004158E770B521F000431A
:1007F00003430CD0C1F30A550024D5EB040564EB88
:100800000403D617AD1AB34102DB0020014670BDC8
:10081000201841EB025170BD30B5041E71F1000487
:1008200004DB4FF00044404264EB0101141E73F1FD
:10083000000405DB1C464FF00043524263EB040307
:100840008B4208BF824230BD064C074D06E0E0688F
:1008500040F0010394E8070098471034AC42F6D307
:10086000FFF748FCE040000800410008202A04DBB4
:10087000203A00FA02F1002070479140C2F12003B3
:1008800020FA03F3194390407047202A04DB203AF2
:1008900021FA02F00021704721FA02F3D040C2F1A0
:1008A00020029140084319467047202A06DBCB17E7
:1008B000203A41FA02F043EAE07306E041FA02F31B
:1008C000D040C2F1200291400843194670472DE9FB
:1008D000F04D00231A461B1A8A4103DB0020014613
:1008E000BDE8F08DC1F30A52C1F3130141F4801544
:1008F0004FF0000BD10702D100186D41521E0027A6
:10090000044640F2FF11384601EB620A3E4680463B
:10091000024600204FF48011FFF7B7FFC219714162
:10092000BB1846EB0100B4EB030C75EB000C04D3D1
:10093000E41A65EB000517460E46241908F101007C
:100940006D4180463428E3DDF91946EB0600091BAA
:10095000A84103D24FF0FF32134601E000221346B4
:100960001BEB070046EB0A51BDE8F04DFFF739BE1F
:100970002DE9F04F87B081468A4614469B46B84819
:100980000078012866D14FF4FA7000F0B3F9002026
:10099000B44908702BE0B449B1F90000FFF77FFDBE
:1009A0000546B24801682846FFF7D0FBAF4908600A
:1009B000AD49B1F90200FFF772FD0546AC48016888
:1009C0002846FFF7C3FBAA490860A749B1F906000A
:1009D000FFF765FD0546A74801682846FFF7B6FB07
:1009E000A44908609F480078401C9E4908709D48B3
:1009F00000780A28CFDB9D480068FFF777FD07469F
:100A000000229D4BFFF7DCFC0546FFF782FD97496E
:100A1000086097480068FFF769FD07460022964B7B
:100A2000FFF7CEFC0546FFF774FD91490860914839
:100A30000068FFF75BFD074600228F4BFFF7C0FC05
:100A40000546FFF766FD8B49086000208449087061
:100A500000F0AAFFD9F800000490D9F8040005902E
:100A6000D9F808000690B4F90000FFF718FD064613
:100A70007E4801683046FFF7BEFB05467F49FFF719
:100A8000EFFB0190B4F90200FFF709FD0646784834
:100A900001683046FFF7AFFB05467849FFF7E0FBFA
:100AA0000290B4F90600FFF7FAFC064671480168A7
:100AB0003046FFF7A0FB05467049FFF7D1FB0390D6
:100AC0006F48049A019901F001FB6E48059A02995A
:100AD00001F0FCFA6C49DAF80400FFF78FFB0546D9
:100AE00067482A46416B694801F0F0FA6649DAF82E
:100AF0000000FFF783FB80F0004562482A46416B07
:100B0000634801F0E3FA6049DAF80800FFF776FB82
:100B10000546604A11680398FFF770FB06462A46AF
:100B200031465D4801F0D2FA4F48B0F90800B0F5FF
:100B3000AF6F6ADD4C48B0F9080040F2A46188420A
:100B400063DA002055490870B4F90400FFF7A7FCE8
:100B500007464E48416B3846FFF74AFB06464C486D
:100B6000416B3046FFF7F2FA05464B48416B284689
:100B7000FFF73EFB4A490860B4F90400FFF78FFC19
:100B800007464248416B3846FFF7E0FA06464048C0
:100B9000416B3046FFF7DAFA05463F48416B28467D
:100BA000FFF7D4FA3F490860B4F90400FFF777FC77
:100BB00007463648416B3846FFF7C8FA06463448C0
:100BC000416B3046FFF714FB05463348416B28461E
:100BD000FFF70EFB34490860B4F90400FFF75FFC2F
:100BE00007462A48416B3846FFF702FB064628486D
:100BF000416B3046FFF7FCFA05462748416B284613
:100C0000FFF7A4FA294908600BE001202349087086
:100C100000202349086023490860234908602349CC
:100C2000086022480068FFF748FC05B21E480068CB
:100C3000FFF743FC06B21B480068FFF73EFC07B213
:100C400017480068FFF739FC0FFA80F82B46324648
:100C50003946404601F06AF907B0BDE8F08F000060
:100C60009600002097000020EC070020980000204C
:100C70009C000020A0000020000024400000204133
:100C800084060020C0060020A34C654238070020DF
:100C900074070020FC060020B0070020060000209A
:100CA00084000020880000208C000020900000209C
:100CB00010B56FF0040001F0D1FD0A4800680A4940
:100CC000B0FBF1F0094908700846007800EB4001DC
:100CD000C1EBC0104FF6FF7101EAC0000449088063
:100CE00010BD0000E000002000127A001600002075
:100CF00018000020014600224FF0E0231A610E4A3E
:100D000012884A435A6100229A611A46126942F0D7
:100D100001021A6100BF4FF0E022106900F00102E9
:100D20001AB100F48032002AF5D000224FF0E023FF
:100D30001A619A61704700001800002001460022E5
:100D40004FF0E0231A610E4A12784A435A6100229A
:100D50009A611A46126942F001021A6100BF4FF00F
:100D6000E022106900F001021AB100F48032002A7A
:100D7000F5D000224FF0E0231A619A61704700001D
:100D8000160000202DE9F04105460C46164655F8A0
:100D900024701BE000E0761EB44205DA55F8260008
:100DA0003946FFF7DDFBF6D955F8260045F8240053
:100DB00000E0641CB44205DA55F824003946FFF718
:100DC000C5FBF6D955F8240045F82600B442E1DB0E
:100DD00045F824702046FFF762FBBDE8F081000073
:100DE00008B50121042001F041FB40F20F10ADF8DD
:100DF000000004208DF803006946024800F0B4F8B2
:100E000008BD00000008014010B5FFF7E9FF00F041
:100E100001F810BD00B589B00121084601F016FBAC
:100E20000121C80201F022FB4FF6FF70ADF81C0053
:100E30004720ADF818000020ADF81E00ADF81A00EC
:100E40008DF8200006A94FF0804002F063FA4FF6BB
:100E5000FF70ADF810004720ADF80C000020ADF891
:100E60001200ADF80E008DF8140003A93D4802F001
:100E700051FA0020ADF80000ADF802000120ADF8F5
:100E800004000020ADF80600ADF8080069464FF0F8
:100E9000804002F009F80420ADF800000020ADF811
:100EA00002000120ADF804000020ADF80600ADF806
:100EB000080069464FF0804001F0F6FF0820ADF8C9
:100EC00000000020ADF802000120ADF80400002071
:100ED000ADF80600ADF8080069464FF0804001F01B
:100EE000E3FF0C20ADF800000020ADF80200012067
:100EF000ADF804000020ADF80600ADF80800694622
:100F00004FF0804001F0D0FF0020ADF80000ADF8B8
:100F100002000120ADF804000020ADF80600ADF895
:100F2000080069460F4801F0BFFF1F214FF08040C5
:100F300001F08AFF03210B4801F086FF01221F21E7
:100F4000900702F007F801220321064802F002F898
:100F50000121880701F07EFF0121024801F07AFF9C
:100F600009B000BD002C01402DE9F04102460025EA
:100F70000026002000230024002791F803C00CF075
:100F80000F0591F803C00CF0100CBCF1000F03D05A
:100F900091F802C04CEA050591F800C0BCF1000FC1
:100FA00031D0146800202BE04FF0010C0CFA00F354
:100FB000B1F800C00CEA03069E4220D183004FF036
:100FC0000F0C0CFA03F7BC4305FA03FC4CEA0404CB
:100FD00091F803C0BCF1280F06D14FF0010C0CFAB8
:100FE00000FCC2F814C00AE091F803C0BCF1480F3D
:100FF00005D14FF0010C0CFA00FCC2F810C0401CE7
:101000000828D1D31460B1F800C0BCF1FF0F34DD63
:10101000546800202EE000F1080C4FF0010808FA97
:101020000CF3B1F800C00CEA03069E4221D1830004
:101030004FF00F0C0CFA03F7BC4305FA03FC4CEA23
:10104000040491F803C0BCF1280F05D100F1080C8D
:1010500008FA0CF8C2F8148091F803C0BCF1480FEC
:1010600007D100F1080C4FF0010808FA0CF8C2F89B
:101070001080401C0828CED35460BDE8F081416147
:10108000704701617047000010B540200A490860B0
:1010900001F0CCFA8020084908600120FFF74EFEDD
:1010A00040200549091F08600220FFF747FE402045
:1010B0000149086010BD0000140C014008B5012171
:1010C000082001F0D3F9C020ADF8000010208DF801
:1010D000030003208DF8020069460448FFF744FF2F
:1010E000C0210248FFF7CDFF08BD0000000C014001
:1010F00010B540200A49086001F098FA802008499C
:10110000091F08600120FFF719FE40200449091F4C
:1011100008600120FFF712FE40200149086010BD61
:10112000140C014070B50546002401F06DFA00264C
:1011300018E04020104908600120FFF7FFFD402023
:101140000D49091F08606006040E0B480C38006842
:10115000C0F3C01008B1601CC4B20120FFF7EEFD5F
:10116000701CC6B2082EE4DB15B1FFF78DFF01E05D
:10117000FFF7BEFF204670BD140C014070B5044659
:101180000D46164600F086F8204600F055F800F0AF
:10119000B3F818B100F098F8012070BD284600F0AF
:1011A0004BF800F0A9F800F075F8611CC8B200F027
:1011B00043F800F0A1F80020FFF7B4FF307000F012
:1011C00083F80020E9E72DE9F04706460F4615466B
:1011D0009846002400F05EF8304600F02DF800F04C
:1011E0008BF820B100F070F80120BDE8F087384698
:1011F00000F022F800F080F800F04CF8711CC8B242
:1012000000F01AF800F078F800240FE0681EA04201
:1012100004D00120FFF786FF814603E00020FFF79E
:1012200081FF814608F80490601CC4B2AC42EDDB3B
:1012300000F04AF80020D8E770B5044601F0F6F94E
:1012400040201349086000251EE004F0800020B112
:1012500080200F49091F086002E080200C490860C7
:101260006006040E0120FFF769FD40200849091FB0
:1012700008600120FFF762FD402005490860012059
:10128000FFF75CFD681CC5B2082DDEDB70BD0000F9
:10129000140C014010B501F0C9F98020094908601B
:1012A000402008600420FFF749FD80200549091D02
:1012B00008600420FFF742FD40200249091D086034
:1012C00010BD0000100C014010B501F0AFF9402036
:1012D00008490860802008600420FFF72FFD4020A7
:1012E0000449091F0860802008600420FFF726FDDC
:1012F00010BD0000140C014010B5002401F084F969
:101300008020104908600120FFF718FD40200D499A
:1013100008600120FFF712FD07E0601CC4B2FA2C40
:1013200003DDFFF7D1FF012010BD06480838006833
:10133000C0F3C0100028F0D140200249091D086008
:101340000020F1E7100C014070B506460C4615462A
:10135000FFF7A0FF3046FFF76FFFFFF7CDFF18B193
:10136000FFF7B2FF012070BD2046FFF765FFFFF7D2
:10137000C3FF2846FFF760FFFFF7BEFF18B1FFF776
:10138000A3FF0120EFE7FFF79FFF0020EBE700003E
:1013900007B5AEB02422FE4923A8FEF7C5FE2F985C
:1013A000006822902F98406821902F9880682090A4
:1013B0002E9800681F902E9840681E902E98806886
:1013C0001D90F44801680068FEF718FF1590F24878
:1013D0000168F0480068FEF711FF1490EF480168BB
:1013E000EC480068FEF70AFF1390ED480168E948F1
:1013F0000068FEF703FF1290E74801680068FEF7F7
:10140000FDFE1190E5480168E3480068FEF7F6FE2E
:101410001090E3480168E0480068FEF7EFFE0F9087
:10142000DE4801680068FEF7E9FE0E90DC480168BE
:10143000DA480068FEF7E2FE0D90D94801680068BE
:10144000FEF7DCFE0C90DDE92110FEF7D7FE0A90D6
:101450002099FEF7D3FE00210B90FFF777F801D11A
:1014600031B000BD20990846FEF7C8FE0A902199C8
:101470000846FEF7C3FE089022990846FEF7BEFE16
:1014800007900899FEF762FE09900A99FEF75EFE42
:101490000B9002F047FD169016992298FEF7AEFECB
:1014A000229016992198FEF7A9FE2190169920986E
:1014B000FEF7A4FE209013990F98FEF799FE4FF0C7
:1014C00080410B90FEF79AFE1C900D991498FEF740
:1014D0003DFE4FF080410B90FEF790FE1B9011995E
:1014E0001598FEF785FE0A900E99FEF781FE0B9087
:1014F0000C99FEF72BFE1A901B992098FEF77EFEA2
:101500000B901A992198FEF779FE0A900B99FEF735
:101510006FFE19901A992298FEF770FE0B901C9995
:101520002098FEF76BFE0A900B99FEF761FE18906B
:101530001C992198FEF762FE0B901B992298FEF7EA
:101540005DFE0A900B99FEF753FE17909549199886
:10155000FEF754FE0B90944801680B98FEF7F6FDD9
:10156000914908608F491898FEF748FE0B908F4804
:1015700001680B98FEF7EAFD8C49086089491798C5
:10158000FEF73CFE0B908A4801680B98FEF7DEFDE3
:10159000874908604FF07F501999FEF72FFE0A9097
:1015A0001F99FEF7D3FD0B907F4801680B98FEF75B
:1015B000CDFD1F904FF07F501899FEF71FFE0A9047
:1015C0001E99FEF7C3FD0B90784801680B98FEF753
:1015D000BDFD1E904FF07F501799FEF70FFE0A9049
:1015E0001D99FEF7B3FD0B90714801680B98FEF74B
:1015F000ADFD1D906A481D990068FEF7FFFD09903A
:1016000066481E990068FEF7F9FD07906248006879
:1016100080F0004005901F99FEF7F0FD06900799B5
:10162000FEF7E6FD08900999FEF7E2FD5D490A9094
:10163000FEF7E4FD0B90574801680B98FEF786FD16
:101640005449086056481E990068FEF7D7FD099076
:1016500052481D990068FEF7D1FD07904D481F992B
:101660000068FEF7CBFD06900799FEF76FFD089026
:101670000999FEF7BDFD4B490A90FEF7BFFD0B909F
:10168000454801680B98FEF761FD434908604448EE
:101690001F990068FEF7B2FD09903F481D99006848
:1016A000FEF7ACFD07903B481E990068FEF7A6FDCB
:1016B00006900799FEF79CFD08900999FEF746FDF4
:1016C00038490A90FEF79AFD0B90344801680B9850
:1016D000FEF73CFD3149086030481F990068FEF76D
:1016E0008DFD09902C481E990068FEF787FD079034
:1016F00028481D990068FEF781FD06900799FEF7BE
:1017000025FD08900999FEF773FD26490A90FEF71A
:1017100075FD0B90224801680B98FEF717FD2049D4
:101720000860084601680068FEF768FD0A901B48DB
:1017300001680068FEF762FD0890174801680068BC
:10174000FEF75CFD0690134801680068FEF756FD41
:1017500005900699FEF7FAFC07900899FEF7F6FC4B
:1017600009900A99FEF7F2FC0B9002F0DBFB169051
:10177000084816990068FEF741FD064908600648CA
:1017800016990068FEF73AFD03490860034811E026
:10179000C83F00085C0000206000002064000020BA
:1017A000680000200AD7A33B6C00002070000020D6
:1017B0007400002016990068FEF720FD7449086047
:1017C000744816990068FEF719FD7249086011996E
:1017D0001598FEF7BBFC0A900E99FEF709FD0B90D9
:1017E0000C99FEF705FD239012991098FEF7AEFCB8
:1017F0004FF080410B90FEF701FD249013990F9854
:10180000FEF7F6FC4FF080410B90FEF7F7FC2590B9
:1018100012991098FEF7ECFC4FF080410B90FEF708
:10182000EDFC269011991598FEF7E2FC0A900E99AE
:10183000FEF78CFC0B900C99FEF7DAFC27901499BC
:101840000D98FEF783FC4FF080410B90FEF7D6FC1D
:10185000289013990F98FEF779FC4FF080410B9078
:10186000FEF7CCFC299014990D98FEF7C1FC4FF0BF
:1018700080410B90FEF7C2FC2A9011991598FEF753
:10188000B7FC0A900E99FEF7B3FC0B900C99FEF78B
:101890005DFC2B902E9880683F490990FEF7AEFCC6
:1018A0003E490A90FEF7AAFC0B90309880680146EA
:1018B0000A900B98FEF74AFC3099886013990F98AC
:1018C000FEF796FC4FF080410490FEF797FC0590E0
:1018D000FEF70CFECDE9060101F0FCFF81F00041AE
:1018E0004FF0C0422E4BCDE90801FEF7F7FCCDE9E1
:1018F0000A01FEF70EFE3099086011991598FEF75F
:1019000077FC01900E99FEF773FC02900C99FEF79C
:101910001DFC0390FEF7EAFDCDE906014FF0804083
:101920001499FEF76BFC02904FF080400D99FEF782
:1019300065FC01900299FEF709FC0390FEF7D6FDC5
:10194000CDE90401DDE9062302F00CFA81F0004143
:101950004FF0C042124BCDE90801FEF7BFFCCDE9C4
:101960000A01FEF7D6FD3099486000202C900AE06D
:1019700023A92C9851F820100A4A42F820102C98DC
:10198000401CC0B22C902C980928F1DB00BF67E501
:101990006400002068000020A34C65420AD7233C65
:1019A00066A64C406006002010B51E48006840F452
:1019B00000501C4908606420FFF79CF91948001D7D
:1019C000006840F400501749091D08606420FFF7C3
:1019D00091F91448006840F40050124908606420EE
:1019E000FFF788F90F48001D006840F400500D49CA
:1019F000091D08606420FFF77DF90A48006840F47B
:101A00000050084908606420FFF774F90548001D7C
:101A1000006840F400500349091D08606420FFF786
:101A200069F910BD100C014010B51448006840F46D
:101A30008050124908606420FFF75CF90F48001DD0
:101A4000006840F480500D49091D08606420FFF7CC
:101A500051F90A48006840F4805008490860642041
:101A6000FFF748F90548001D006840F4805003491D
:101A7000091D08606420FFF73DF910BD100C0140FE
:101A800008B50121082000F0F1FC4FF4E040ADF86A
:101A9000000010208DF8030003208DF80200694635
:101AA0000948FFF761FA4FF480510748FFF7E7FA5A
:101AB0004FF400510448FFF7E2FA4FF48041024826
:101AC000FFF7DDFA08BD0000000C014000B589B049
:101AD00001210D2000F0CAFC0121022000F0B6FC1B
:101AE000C020ADF8200018208DF8230003208DF8C9
:101AF000220008A93848FFF737FA0320ADF8200084
:101B000018208DF8230003208DF8220008A93348FF
:101B1000FFF72AFA43F69720ADF818004720ADF8F2
:101B200014000020ADF81600ADF81A0005A92C48E5
:101B300001F0F0FB6020ADF804000020ADF80A00D1
:101B4000ADF80C000120ADF8060001A9244801F011
:101B50002DFA0821224801F07EFA6020ADF8040039
:101B60000020ADF80A00ADF80C000120ADF8060029
:101B700001A91B4801F078FA0821194801F0D3FAAD
:101B80006020ADF804000020ADF80A00ADF80C00AC
:101B90000120ADF8060001A9114801F0D1FA082191
:101BA0000F4801F02AFB6020ADF804000020ADF8DA
:101BB0000A00ADF80C000120ADF8060001A90848A4
:101BC00001F024FB0821064801F06BFB01210448C9
:101BD00001F040F909B000BD00080140000C0140CF
:101BE0000004004010B502E003A001F0C7FD00F0C2
:101BF00094F90028F8D010BD0D4D505536303530D1
:101C0000206E6F20636F6E6E6563742E2E2E0D0A2C
:101C10000000000010B5FFF7E5FF80216B2000F009
:101C200067F96420FFF766F801216B2000F060F986
:101C30000021382000F05CF918211B2000F058F931
:101C400008211C2000F054F904211A2000F050F95A
:101C50000021192000F04CF90221372000F048F94A
:101C600010BD00007FB514461D4642480088A0B94B
:101C70000020ADF80000ADF80200ADF804003E49C8
:101C800008603E4908603E490860012039490880E3
:101C90000025002020806080A080BDF9000036492A
:101CA0000968084434490860BDF9020033490968ED
:101CB000084432490860BDF90400401B30490968F6
:101CC00008442F4908602B480088C8284BD12A486F
:101CD00000682849098890FBF1F000B2208027486D
:101CE00000682449098890FBF1F000B26080244824
:101CF00000682049098890FBF1F000B2A080002024
:101D00001C4908801F480068401C1E4908601E4886
:101D1000006840F480401C4908600846006840F4B0
:101D200000500860FFF780FE16480068022817D1AF
:101D30001548006840F48040134908600846006870
:101D400040F480500860FFF72FFEFFF72DFE0E488D
:101D5000006840F400500C49086000200949086000
:101D6000012004B070BD03480088401C0149088070
:101D70000020F6E748000020380000203C0000204A
:101D80004000002044000020140C01401CB53F48D6
:101D900040783E49097840EA01203D490988401AC7
:101DA00000B23C4908803948C0783849897840EA0F
:101DB000012037494988401A00B2364948803348E3
:101DC00040793249097940EA012031498988401A2D
:101DD00000B2304988802D48407A2C49097A40EA7F
:101DE00001202D490988401A00B22C490880274853
:101DF000C07A2649897A40EA012027494988401A51
:101E000000B2264948802148407B2049097B40EAAE
:101E1000012021498988401A00B220498880204841
:101E2000007800F00100B8B1084601680091808890
:101E3000ADF804000023184ADDE90001FFF712FFA6
:101E400050B11748007820F0010015490870084685
:101E5000007840F00200087011480078C0F340009C
:101E600098B10C48016800918088ADF8040042F2F6
:101E70000403074ADDE90001FFF7F4FE28B1084832
:101E8000007820F00200064908701CBDFC0000200C
:101E900022000020280000201C0000202E0000202E
:101EA0003400002010B5034A0E213B2000F011F849
:101EB00010BD0000FC00002070B504460D462A4607
:101EC0002146D020FFF75AF908B1012070BD00204B
:101ED000FCE770B504460D46164633462A462146B1
:101EE000D020FFF770F908B1012070BD0020FCE799
:101EF00070B504460D462A462146D020FFF724FA45
:101F000008B1012070BD0020FCE708B569467520C6
:101F1000FFF7D2FF9DF8000008BD10B5FFF7F5FFF1
:101F2000682801D1012010BD0020FCE730B5B0F5D4
:101F3000FA6F01DD4FF4FA60B1F5FA6F01DD4FF48D
:101F4000FA61B2F5FA6F01DD4FF4FA62B3F5FA6F98
:101F500001DD4FF4FA63B0F57A7F01DA4FF47A705D
:101F6000B1F57A7F01DA4FF47A71B2F57A7F01DA4E
:101F70004FF47A72B3F57A7F01DA4FF47A73044D35
:101F800028802D1D29802D1D2A802D1D2B8030BDE0
:101F90003404004070B5002100230F22C47804B33C
:101FA000154C246804F4E064C4F5E064210AC1F12E
:101FB0000403CA40447804FA03F1847814402143AE
:101FC00009010E4C0678A155047804F01F05012480
:101FD000AC4005786D11AD0005F1E025C5F8004174
:101FE00009E0047804F01F050124AC40044D067894
:101FF000761145F8264070BD0CED00E000E400E0ED
:1020000080E100E002490143024A1160704700008C
:102010000000FA050CED00E008B54FF4A060FFF7F2
:10202000F1FF1E208DF8000001208DF801008DF8D1
:1020300002008DF803006846FFF7ACFF25208DF8FD
:10204000000002208DF8010001208DF802008DF8BB
:1020500003006846FFF79EFF08208DF8000002206D
:102060008DF801008DF8020001208DF8030068460C
:10207000FFF790FF1C208DF8000000208DF8010074
:1020800003208DF8020001208DF803006846FFF759
:1020900081FF1B208DF8000000208DF80100022038
:1020A0008DF8020001208DF803006846FFF772FFEB
:1020B00027208DF8000001208DF801008DF8020026
:1020C0008DF803006846FFF765FF08BD2DE9F04174
:1020D00004460E46154629463046FEF789F8E0606C
:1020E000A169E068FEF784F86061E1682068FEF7A6
:1020F00085F8A06294F83800FEF7DAF98046616846
:10210000FEF77CF807462169FEF778F8E06261691E
:10211000A068FEF773F82063D4E90A01FEF716F809
:102120000746216BFEF712F860631F48B0F90800FC
:10213000B0F5AF6F31DD1C48B0F90400B4282CDBDA
:102140002846216AFEF70CFA07D3206A80F0004780
:1021500029463846FEF704FA03D2002084F83800F6
:102160001DE0012084F83800D4E90310FDF7EEFFEC
:102170002061616A2069FEF7F3F901D2606A20618B
:10218000606A80F0004738462169FEF7E9F906D217
:10219000606A80F00040206101E000202061E0687A
:1021A000A061BDE8F0810000EC07002029482A4921
:1021B000086000204860886028482949086000209D
:1021C000486028488860002081F838002648086266
:1021D000264848620020204981F8380024480862D7
:1021E000244848621B4824490860002088601B4836
:1021F00022490860002048601A488860002081F861
:102200003800194808621948486200201A4981F8C4
:102210003800174808621748486219481949086089
:102220000020486088604FF07F5017490860002008
:102230004860886081F838000B4808620B484862A3
:102240000020104981F838000948086209484862AE
:102250007047000000009040840600206666663FDC
:10226000380700209A99D93F000016430000964491
:1022700000000C4200004843C00600207407002004
:1022800000004040FC060020B007002070B5FFF7BA
:1022900009FEFFF77BFD0C225149524800F050FA2D
:1022A0004F4908685049FDF7A9FF04464F49FDF71B
:1022B000A5FF4B49086048684B49FDF79FFF04465E
:1022C0004A49FDF79BFF4649486088684649FDF743
:1022D00095FF04464549FDF791FF4149886044490F
:1022E000B1F90000FEF7DBF804464249FDF786FF2E
:1022F000414908603E49B1F90200FEF7D0F80446B2
:102300003C49FDF77BFF3C4948603949B1F904007D
:10231000FEF7C5F804463749FDF770FF3649886077
:102320003648007800283CD0354908683549FDF723
:1023300065FF04462A4908683349FDF75FFF0546F3
:102340002146FDF703FF264908602D4948682D49BD
:10235000FDF754FF0446224948682B49FDF74EFF1C
:1023600005462146FDF7F2FE1D494860244988686C
:102370002449FDF743FF0446194988682249FDF7BF
:102380003DFF05462146FDF7E1FE154988600846F8
:1023900000681B490860124840684860104880681F
:1023A00088600F480068194908600D484068486017
:1023B0000B488068886008680021FEF7C7F80ED0D7
:1023C000124948680021FEF7C1F808D00F49886813
:1023D0000021FEF7BBF802D001200D49087070BD46
:1023E000300600202800002040DAFF380AE81C41AF
:1023F0002E00002045798B3A180600207800002036
:1024000048060020CDCCCC3D6666663F54060020D1
:10241000580000202DE9F04107460D461646B5420A
:1024200012DA324629463846FEF7ACFC8046FEF703
:1024300044F80446621E29463846FFF7EBFF324651
:10244000611C3846FFF7E6FFBDE8F08129B1064A76
:10245000D2690243044BDA6104E0034AD269824341
:10246000014BDA61704700000010024029B1064AB2
:1024700092690243044B9A6104E0034A92698243E1
:10248000014B9A61704700000010024030B50021F6
:102490000022002400232D4D6D6805F00C0121B1B0
:1024A000042905D0082923D105E0294D056022E043
:1024B000274D05601FE0254D6D6805F47012234D12
:1024C0006D6805F48034022505EB92421CB9214D5C
:1024D000554305600BE01D4D6D6805F400351DB1D9
:1024E0001C4D5543056002E0194D5543056002E05F
:1024F000174D056000BF00BF144D6D6805F0F00179
:102500000909154D6B5C0568DD4045600F4D6D6830
:1025100005F4E061090A104D6B5C4568DD4085609B
:102520000A4D6D6805F46051C90A0B4D6B5C456836
:10253000DD40C560054D6D6805F44041890B074DD0
:102540006B5CC568B5FBF3F5056130BD001002405A
:1025500000127A0000093D00CC000020DC000020C1
:1025600030B5244CA488234D6D88641B23B2002B06
:1025700000DA1BB240F63404A34204DAB3F5617FFB
:1025800001DD1D4C23801D4CA4881C4D6D88641BEF
:1025900020B2002800DA00B240F63404A04204DA87
:1025A000B0F5617F01DD144C6080154CA488144D9A
:1025B0006D88641B21B2002900DA09B240F63404A8
:1025C000A14204DAB1F5617F01DD0B4CA1800D4C15
:1025D000A4880C4D6D88641B22B2002A00DA12B266
:1025E00040F63404A24204DAB2F5617F01DD024C08
:1025F000E28030BDA4000020EC070020AC000020E9
:10260000B4000020BC00002008B501210820FFF71D
:102610002DFF8020ADF8000004208DF803006946EE
:102620000148FEF7A1FC08BD000C014008B50121DE
:102630000820FFF71BFF8020ADF8000010208DF868
:10264000030003208DF8020069460248FEF78CFC67
:1026500008BD0000000C014010B500F001F810BDED
:102660000CB50020019000903348006840F48030A1
:102670003149086000BF3048006800F40030009025
:102680000198401C0190009818B90198B0F5A06F0E
:10269000F1D12948006800F4003010B10120009009
:1026A00001E0002000900098012843D123480068F1
:1026B00040F01000214908600846006820F007003B
:1026C00008600846006840F0020008601A48406848
:1026D000194948600846406848600846406840F428
:1026E000806048600846406820F47C1048600846D6
:1026F000406840F4E81048600846006840F0807088
:10270000086000BF0C48006800F000700028F9D095
:102710000948406820F003000749486008464068BF
:1027200040F00200486000BF0348406800F00C0021
:102730000828F9D10CBD0000001002400020024022
:102740002DE9F05F06460F4614464FF00008C146DB
:10275000C246B6F90000FDF7A2FE3B493B4A12789B
:1027600041F82200B6F90200FDF799FE3849374AD0
:10277000127841F82200B6F90400FDF790FE3549C1
:10278000324A127841F8220030480078401C2F4924
:10279000087008460078A04204DA2F48007808B193
:1027A000BDE8F09F00202C490870621E00212648D9
:1027B000FFF730FE621E00212548FFF72BFE621E48
:1027C00000212448FFF726FE012516E01E4850F898
:1027D00025104046FDF7BAFC80461D4850F82510EC
:1027E0004846FDF7B3FC81461A4850F8251050467C
:1027F000FDF7ACFC8246681CC5B2601EA842E5DC51
:1028000012480078A04202DB002010490870A01E88
:10281000FDF745FE834659464046FDF721FD3860E9
:10282000A01EFDF73CFE834659464846FDF718FDBD
:102830007860A01EFDF733FE834659465046FDF7EB
:102840000FFDB86000BFABE7AC0100204E000020D8
:10285000FC0100204C0200204F000020042808D179
:102860004FF0E021096941F004014FF0E0221161CD
:1028700007E04FF0E021096921F004014FF0E02268
:102880001161704710B51348006840F0010011490C
:10289000086008464068104908400E4948600846EC
:1028A00000680E4908400B4908600846006820F49B
:1028B000802008600846406820F4FE0048604FF41D
:1028C0001F008860FFF7C8FE4FF0006004490860F1
:1028D00010BD0000001002400000FFF8FFFFF6FEF0
:1028E00008ED00E010B5FFF7CBF8FFF795FBFEF71A
:1028F000DFF94FF4E13000F0F7FEFEF7DFFB00F008
:1029000033FBFFF787F9FFF7E1F8FFF74FFCFEF71E
:102910007BFA10BDF0B50C46154600220021068C4E
:102920004FF6FE773E400684028B018C4FF60C7604
:1029300032407E1C06EA03162E433243104EB0424C
:102940000ED0104EB0420BD0B0F1804F08D00E4EDA
:10295000B04205D00D4EB04202D00D4EB04206D16D
:102960004FF6FD76314044F00106314305E04FF665
:10297000F576314044F00106314302830184F0BD15
:10298000002C0140003401400004004000080040D9
:10299000000C0040F0B50C46154600220021002630
:1029A000078C4FF6EF7C07EA0C070784028B018C3B
:1029B0004FF6FF7707EA041640F6FF473A404FF616
:1029C000FF7707EA03373A434FF6FF7707EA052711
:1029D0003A43114FB8420ED0104FB8420BD0B0F16D
:1029E000804F08D00E4FB84205D00E4FB84202D0EB
:1029F0000D4FB84206D14FF6DF77394046F0100749
:102A0000394305E04FF65F77394044F0100739430A
:102A100002830184F0BD0000002C0140003401401D
:102A20000004004000080040000C0040F0B50C46D7
:102A30001546002200210026078C4FF6FF6C07EA9E
:102A40000C070784828B018C4FF6FF7707EA042678
:102A50004FF60C773A404FF6FF7707EA03172F43FC
:102A60003A43114FB8420ED0104FB8420BD0B0F1DC
:102A7000804F08D00E4FB84205D00E4FB84202D05A
:102A80000D4FB84206D14FF6FF57394046F48077D4
:102A9000394305E04FF2FF57394044F4807739431A
:102AA00082830184F0BD0000002C0140003401400D
:102AB0000004004000080040000C0040F0B50C4647
:102AC0001546002200210026078C4EF6FF7C07EAFF
:102AD0000C070784828B018C4FF6FF7707EA0436D8
:102AE00040F6FF473A404FF6FF7707EA05273A439B
:102AF0004FF6FF7707EA03373A43114FB8420ED03B
:102B0000104FB8420BD0B0F1804F08D00E4FB842F2
:102B100005D00E4FB84202D00D4FB84206D14DF647
:102B2000FF77394046F48057394305E047F6FF57B1
:102B3000394044F48057394382830184F0BD00005A
:102B4000002C014000340140000400400008004017
:102B5000000C004010B50221204800F094F918B391
:102B60001F48407870B91D4800F080F91C49488022
:102B70000020C8800221194800F064FA0120184999
:102B800048700DE0154800F071F915498880002162
:102B9000124800F057FA00201149487001200870CF
:102BA00002210E4800F053F90D4880880C494988ED
:102BB000401A40F6340188420FDA094880880849F3
:102BC0004988401AB0F5617F07DD054880880449CF
:102BD0004988401A00B20349088110BD002C014009
:102BE000C4000020EC07002010B50121880700F088
:102BF0004AF918B10121880700F029F90221480794
:102C000000F041F920B35348407868B94FF0804054
:102C100000F02CF94F4948800221480700F012FAD1
:102C200001204C4948700FE04FF0804000F01EF941
:102C30004849888000214FF0804000F003FA0020CE
:102C400044494870012008700221480700F0FFF84D
:102C50000421080700F017F920B33F48407868B90D
:102C60004FF0804000F005F93B49488002214807B9
:102C700000F04CFA0120384948700FE04FF08040D6
:102C800000F0F7F83449888000214FF0804000F0D0
:102C90003DFA0020304948700120087004210807DF
:102CA00000F0D5F80821C80600F0EDF820B32B4855
:102CB000407868B94FF0804000F0DEF8274948803E
:102CC0000221480700F08CFA0120244948700FE0E7
:102CD0004FF0804000F0D0F82049888000214FF06C
:102CE000804000F07DFA00201C49487001200870E7
:102CF0000821C80600F0ABF81021880600F0C3F8E0
:102D000020B31748407868B94FF0804000F0B7F81A
:102D1000134948800221480700F0B6FA0120104903
:102D200048700FE04FF0804000F0A9F80C4988800F
:102D300000214FF0804000F0A7FA002008494870B9
:102D4000012008701021880600F081F8FFF708FCC8
:102D500010BD0000A4000020AC000020B400002042
:102D6000BC00002010B501212D4800F08CF800288F
:102D700051D02C480088401C2A4908802A480088E5
:102D8000401C2949088029480088401C27490880A0
:102D900027480088401C2649088026480088401C97
:102DA0002449088024480088401C234908801D4885
:102DB0000088022802DB00201A4908801A4800888F
:102DC000052805DB00201849088001201B490870F0
:102DD000164800880A2805DB0020144908800120D5
:102DE0001749087012480088642805DB0020104944
:102DF00008800120134908700E480088C82802DBAB
:102E000000200C4908800C480088B0F5C87F02DB20
:102E10000020094908800121014800F018F810BD80
:102E200000080040080000200A0000200C000020DC
:102E30000E000020100000201200002002000020E0
:102E40000100002000000020CA4302827047CA43EC
:102E50000282704721B1028842F00102028004E040
:102E600002884FF6FE731A40028070470146888E32
:102E700070470146088F70470146888F70470146AA
:102E8000B1F84000704730B502460020002300240E
:102E9000158A05EA0103958905EA010413B10CB10D
:102EA000012000E0002030BD70B505460C462448E6
:102EB00085420ED0234885420BD0B5F1804F08D013
:102EC0002148854205D02148854202D020488542CC
:102ED00000D100E000BF208850B92389A288618812
:102EE0002846FFF717FDE188284600F0E7F925E0BE
:102EF000208804280AD12389A28861882846FFF700
:102F000049FDE188284600F0E2F917E0208808280A
:102F10000AD12389A28861882846FFF787FDE188C6
:102F2000284600F0E1F909E02389A2886188284653
:102F3000FFF7C4FDE188284600F0DFF970BD00000E
:102F4000002C014000340140000400400008004013
:102F5000000C00401AB183890B43838102E083890E
:102F60008B438381704700000EB501210420FFF7D9
:102F70006DFA40F2E730ADF804004720ADF80000EC
:102F80000020ADF80600ADF802006946064800F0E2
:102F9000C1F9012211460448FFF7DCFF0121024874
:102FA000FFF758FF0EBD00000008004070B5002478
:102FB00000220023058C4FF6FE7635400584028CF6
:102FC0008388048B4FF68F752C40B51E2C400D88DE
:102FD0002C43751E2A400D892A434D882A43144DDF
:102FE000A8420BD0134DA84208D0134DA84205D0DB
:102FF000124DA84202D0124DA84213D14FF6F775D8
:103000002A404D892A434FF6FB752A408D882A4372
:103010004FF6FF652B404FF6FF552B408D892B4314
:10302000CD892B4383800483CD888586028470BD3F
:10303000002C0140003401400040014000440140A8
:10304000004801400A460021018C4FF6FD731940EB
:103050001143018470470A460021018B4FF6F77334
:10306000194011430183704770B5002400220023EA
:10307000058C4FF6EF7635400584028C8388048BEF
:1030800048F6FF752C404FF6FF452C400D884FF653
:10309000FF7606EA05252C434FF6DF752A400D8999
:1030A00006EA05152A434D8806EA05152A43154DFB
:1030B000A84202D0144DA8421DD14FF67F752A4078
:1030C0004D894FF6FF7606EA05152A434FF6BF7580
:1030D0002A408D8806EA05152A434FF6FF352B4016
:1030E0004FF2FF752B408D8906EA85052B43CD896C
:1030F00006EA85052B4383800483CD8805870284F7
:1031000070BD0000002C0140003401400A4600213F
:10311000018C4FF6DF7319404FF6FF7303EA021379
:103120001943018470470A460021018B4FF2FF7357
:1031300019404FF6FF7303EA0223194301837047D6
:1031400070B5002400220023058C4FF6FF66354041
:103150000584028C8388848B4FF68F752C404FF644
:10316000FC752C400D882C434FF6FF552A400D89E5
:103170004FF6FF7606EA05252A434D8806EA05251F
:103180002A43154DA84202D0144DA8421DD14FF23A
:10319000FF752A404D894FF6FF7606EA05252A433A
:1031A0004FF6FF352A408D8806EA05252A434EF65C
:1031B000FF752B404DF6FF752B408D8906EA0515EE
:1031C0002B43CD8906EA05152B4383808483CD8864
:1031D0008587028470BD0000002C0140003401404E
:1031E0000A460021018C4FF6FF5319404FF6FF733A
:1031F00003EA02231943018470470A460021818BA8
:103200004FF6F773194011438183704770B5002260
:1032100000230024058C4EF6FF7635400584038C90
:103220008488828B48F6FF752A404FF6FF452A4076
:103230000D884FF6FF7606EA05252A434DF6FF7501
:103240002B400D8906EA05352B434D8806EA0535E6
:103250002B430B4DA84202D00A4DA84208D14BF691
:10326000FF752C408D894FF6FF7606EA85152C43B5
:1032700084808283CD88A0F84050038470BD000014
:10328000002C0140003401400A460021018C4DF61B
:10329000FF7319404FF6FF7303EA023319430184A9
:1032A00070470A460021818B4FF2FF7319404FF699
:1032B000FF7303EA0223194381837047028B4FF6A1
:1032C000F3731A400283028B0A4302837047028B16
:1032D0004FF2FF331A400283028B4FF6FF7303EA6B
:1032E00001231A4302837047828B4FF6F3731A400F
:1032F0008283828B0A4382837047828B4FF2FF3333
:103300001A408283828B4FF6FF7303EA01231A432C
:1033100082837047002202881D4B98420ED01D4BBD
:1033200098420BD0B0F1804F08D01B4B984205D08B
:103330001A4B984202D01A4B984204D14FF68F7321
:103340001A404B881A43174B984207D0164B9842A5
:1033500004D04FF6FF431A40CB881A4302808B8873
:1033600083850B8803850A4B98420BD0094B984202
:1033700008D00E4B984205D00D4B984202D00D4B11
:10338000984201D10B7A03860123838270470000A3
:10339000002C0140003401400004004000080040BF
:1033A000000C0040001000400014004000400140AC
:1033B000004401400048014010B53D48007880B10C
:1033C00000203B490870FEF761FF3A4A3A493B4802
:1033D000FDF7DEFF3A4803783A4A38493548FDF7A9
:1033E000C7FA39480078002860D0002036490870B4
:1033F0003648007850BB3648007838B33548006806
:1034000040F48050334908600846006840F480402A
:1034100008600846006840F4005008602E480078B4
:1034200048B100202C4908702A48006840F48040C8
:10343000284908600AE00120274908702548001F34
:10344000006840F480402349091F08602048007844
:1034500060BB21480078A0B100201F4908701D48BA
:10346000006840F480401B4908600846006840F44A
:1034700080500860081F006840F40050091F086071
:1034800014E00120144908701248006840F480409C
:1034900010490860081F006840F48050091F086048
:1034A000081D006840F40050091D086010BD0000B0
:1034B000010000200C060020300600201806002025
:1034C00095000020EC07002000000020960000205E
:1034D00006000020140C01401400002010B500BFAD
:1034E00040F225510B4800F03FF860B940F224410A
:1034F000084800F039F830B106480088C4B20548E1
:10350000001D0088C4B240F22551024800F004F8C2
:1035100010BD00000038014010B50022002340F625
:103520006A14A14200D100BF0A1201249440A3B240
:10353000DC43048010BD21B1828942F400528281B3
:1035400004E082894DF6FF731A408281704702467B
:103550000020B1F5007F00D100BF13880B400BB1F4
:10356000012000E00020704770B5024600240023CF
:103570000025002040F66A16B14200D100BFC1F319
:10358000421501F01F03012606FA03F3012D02D1B3
:103590009689334006E0022D02D1168A334001E0BD
:1035A000968A33400C12012606FA04F41688344039
:1035B00013B10CB1012000E0002070BDF0B503464E
:1035C000002400260025002040F66A17B94200D1E9
:1035D00000BF1846C1F3421401F01F06012707FA85
:1035E00006F5012C01D10C3004E0022C01D1103081
:1035F00000E014301AB107682F43076002E0076843
:10360000AF430760F0BD00002DE9F04786B00546E6
:103610000E460024A24600BFA1460027B08900B193
:1036200000BF2F462C8A4CF6FF700440F0880443FC
:103630002C82AC894EF6F3100440B08831890843DF
:10364000718908430443AC81AC8A4FF6FF400440C3
:10365000B0890443AC8201A8FEF718FF1F488742D7
:1036600002D1DDF810A001E0DDF80CA0A88900F47B
:10367000004040B10AEBCA0000EB0A103168490073
:10368000B0FBF1F807E00AEBCA0000EB0A10316862
:103690008900B0FBF1F86420B8FBF0F004012009C8
:1036A000642101FB1089A88900F4004040B1322058
:1036B00000EBC900B0FBF1F000F00700044308E0A4
:1036C000322000EB09106421B0FBF1F000F00F0094
:1036D00004432C8106B0BDE8F087000000380140AB
:1036E000C1F308028280704710B586B004460121FC
:1036F00044F20C00FEF7BAFE01218804FEF7A6FE94
:103700004FF40070ADF8140018208DF81700032056
:103710008DF8160005A91748FDF726FC4FF48060C8
:10372000ADF8140004208DF8170003208DF8160062
:1037300005A91048FDF718FC0420ADF80E00002084
:10374000ADF80C000194ADF80A00ADF80800ADF832
:10375000100001A90848FFF757FF012240F2255148
:103760000548FFF72BFF01210348FFF7E4FE06B0F1
:1037700010BD00000008014000380140014A024924
:1037800000F096B8013F0008F4000020490050EA1C
:10379000C12018BF04204A0D18BF40F0010040F2BC
:1037A000FF72B2EB515F08BF40F00200012808BF72
:1037B000052070472DE9F0414F1E00EBC70104467C
:1037C000D1E9000115461E4637F006020DD02A4603
:1037D0003346FCF783FD7F1E04EBC703D3E90023C8
:1037E000FCF75CFF37F00602F1D1022F25D0042F41
:1037F00013D0062F18BFBDE8F0812A463346FCF7E8
:103800006DFDD4E90A23FCF749FF2A463346FCF74D
:1038100065FDD4E90823FCF741FF2A463346FCF74F
:103820005DFDD4E90623FCF739FF2A463346FCF751
:1038300055FDD4E90423FCF731FF2A463346FCF753
:103840004DFDD4E90223FCF729FF2A463346FCF755
:1038500045FDD4E90023BDE8F041FCF71FBF01227C
:10386000FCF7C3BFFCF71ABF0022134610461146EF
:10387000FCF7A6BD024A00201107FCF7B6BF000006
:1038800001FDFFFF02E008C8121F08C1002AFAD19B
:1038900070477047002001E001C1121F002AFBD1D0
:1038A000704700000149086070470000F8000020E0
:1038B0002DE9F04116460F460446002503E039463F
:1038C000B047641C6D1C20780028F8D12846BDE85C
:1038D000F08100002DE9F04D8D4F21F0004A86B0B7
:1038E00005460C46BA452ADBAAEB070028430AD056
:1038F0008848824501DC1AD1CDB106B02846BDE822
:10390000F04DFFF7ACBF844A844B2846FCF7E6FC39
:1039100007460E46824A834B28462146FCF7DEFCCA
:1039200006B03A463346BDE8F04DFCF7B7BE01207D
:10393000FFF7B8FF06B0BDE8F04DFFF795BF7A4836
:10394000824542DABAF1795F0BDA2846FFF71EFFAB
:10395000042808BFFFF78EFF284606B02146BDE8C1
:10396000F08D2A460B461046FCF7B8FC834602460B
:103970006E480E460B4606217844FFF71BFF5A4659
:103980003346FCF7ABFC804669488A465A463346C4
:1039900004217844FFF70EFF5A463346FCF79EFC9D
:1039A00000223B46FCF77AFE02460B464046514653
:1039B000FCF706FD2A462346FCF790FC06B02A4693
:1039C0002346BDE8F04DFCF769BE284624F00041CF
:1039D00000223D463B46FCF705FF4FF0FF32FCF767
:1039E00004FF0646024653480F460B46062178441C
:1039F000FFF7E0FE32463B46FCF770FCCDE90001E4
:103A00004D4832463B4604217844FFF7D3FE324608
:103A10003B46FCF763FC00222B46FCF73FFE834647
:103A200002913046394600F0A9FA804643480D46D7
:103A3000504517DCDDE900015A46029BFCF7C0FC4B
:103A400042462B46FCF74AFC42462B46FCF726FE34
:103A50000122FCF7CAFE304A304BFCF7C0FE304A68
:103A6000304B4CE04FF0000A52460B464046FCF704
:103A700015FECDE9031052462B4610461946FCF7B9
:103A80002DFC32463B46FCF7ADFEDDE90332FCF788
:103A900097FC06460F46DDE900015A46029BFCF7FB
:103AA0008FFC83460091012230463946FCF79DFE8B
:103AB000194A1A4BFCF796FE06460F46012240466D
:103AC0002946FCF792FE5A46009BFCF707FC32465B
:103AD0003B46FCF784FE06460F4601225046294627
:103AE000FCF783FE0E4DDFF858802A464346FCF76C
:103AF00079FE32463B46FCF775FE2A464346FCF704
:103B000071FE002CD8BF81F0004106B0BDE8F08DF9
:103B10000000F03F0000F07F075C143326A6913CC4
:103B2000182D4454FB21F93F0000E03F74060000CB
:103B30008A060000FE050000140600003333EF3F44
:103B4000FB21E93F2DE9F84F04460D4621F00040E6
:103B500000917349814211DC7249884201DC06D12F
:103B60002CB120462946BDE8F84FFFF778BE6E48D5
:103B7000002DCCBF6D496E49BDE8F88F6D4981427B
:103B800011DD6D498142D8BF4FF0FF366DDD204613
:103B90002946FFF7FBFD042808BFFFF76BFE204610
:103BA0002946BDE8F88F6549654F25F000458142FB
:103BB00033DD6449814219DD002632464FF08043EF
:103BC00020462946FCF76AFD80468A4601222046A7
:103BD0002946FCF70AFE00223B46FCF700FE42465F
:103BE0005346FCF7EDFB04460D463EE0012600225D
:103BF000BA463B4620462946FCF750FD80460F4614
:103C00000022534620462946FCF7E9FD42463B4642
:103C1000FCF7D6FB04460D4627E04B4981421BDDED
:103C2000DFF828A102260022534620462946FCF749
:103C300055FB00223B46FCF731FD80460F46002233
:103C4000534620462946FCF7CAFD42463B46FCF750
:103C5000B7FB04460D4608E0032622462B4600200B
:103C60003B49FCF7ADFB04460D4622462B46104669
:103C70001946FCF733FB8B46824602460B46FCF79F
:103C80002DFB07460246334888460B4606217844FA
:103C9000FFF790FD52465B46FCF720FB82462E481C
:103CA0008B463A46434605217844FFF783FD3A4662
:103CB0004346FCF713FB02460B46002E504659467E
:103CC0000CDAFCF7EBFC22462B46FCF707FB01B0B5
:103CD00022462B46BDE8F04FFCF784BDFCF7DEFC26
:103CE00022462B46FCF7FAFA1C4A7A4402EBC6033A
:103CF000D3E90023FCF773FD22462B46FCF76FFD4A
:103D0000174A7A4402EBC603D3E90023FCF76AFDA5
:103D1000009A002AB8BF81F00041BDE8F88F00008A
:103D2000000010440000F07F182D4454FB21F93F9F
:103D3000FB21F9BF0000DC3F0000203E0000F33F04
:103D40000000F03F0000E63F008003400000F83F25
:103D50000000F0BF16040000D4030000720300004E
:103D60003A0300002DE9F04D9446CCF1000423F015
:103D700000464CEA0404594F46EAD4749A468846F1
:103D800021F00042BC4206D8454240EA050442EA1E
:103D9000D474BC4204D9BDE8F04D6246FFF762BD61
:103DA000AAF14055A5F17F6555EA0C040BD0022419
:103DB00004EAAA744A4DDFF82CE144EAD87452EAC6
:103DC000000B04D00CE0BDE8F04DFFF7BBBE002CAB
:103DD00014BF012CBDE8F08D022C30D0032C32D062
:103DE00056EA0C0B0AD0BE4220D1BA4209D126F0C5
:103DF000804622F080423346114617E000291ADB44
:103E000025E0DFF8E4B0FB44002C04BFDBE900014F
:103E1000BDE8F08D012C02BFDBE9000181F000411B
:103E2000BDE8F08D022C0AD0032C0CD0BA4212D17E
:103E3000B8F1000F0BDA2A482C49BDE8F08D28466E
:103E40002B49BDE8F08D28467146BDE8F08D244829
:103E50002849BDE8F08D921B12153C2AC4BF204FA3
:103E6000244E10DCBAF1000FBEBF12F13C0F002748
:103E70003E4608DB6246FCF7A3FA21F00041FFF75B
:103E800061FE07460E4694B1012C08BF86F000463D
:103E90000DD0194A194B022C3846314615D0FCF783
:103EA0009EFC2A46BDE8F04D114BFCF798BC002261
:103EB000134638463146FCF7AFFC04BF0220FFF73B
:103EC000F1FC38463146BDE8F08DFCF788FC2A4607
:103ED000BDE8F04D064BFCF785BC00000000F07F0C
:103EE000182D4454FB2109C0CE020000FB21F9BF6C
:103EF000FB210940FB21F93F075C143326A6A13CB6
:103F000070B504460D46E1B20548FFF7E9FB00BF76
:103F100080210348FFF71BFB0028F9D0204670BD25
:103F2000003801402DE9F04704464FF07C5120460F
:103F3000FCF764F9814625462E460C48A0EB660640
:103F4000354629464846FCF759F982462946FCF78A
:103F500055F980464FF07F51FCF74DF90746294649
:103F6000FCF74CF905462846BDE8F087865A375FCE
:103F7000FEF7B8FC01E0FFF71FFAFCE72DE9F0417E
:103F800006460F46FCF7A3FC041E0D4618BF012091
:103F9000284320F00040C0F17F6000F1E040C00FF6
:103FA0000ED0301C18BF0120384320F00040C0F173
:103FB0007F6000F1E040C00F04BF0120FFF772FCFA
:103FC00020462946BDE8F0810000803F0000000047
:103FD00000000000000000000000803F0000000022
:103FE00000000000000000000000803F0000000012
:103FF000555555555555C53F7D6FEB0312D6D4BF6A
:104000005544880E55C1C93F3B8F68B52882A4BF6F
:1040100088B20175E0EF493F09F7FD0DE13D023F30
:104020004B2D8A1C273A03C0C88A599CE52A0040B8
:1040300059018D1B6C06E6BF82922EB1C5B8B33F05
:104040004FBB610567ACDD3F182D4454FB21E93FB0
:104050009BF681D20B73EF3F182D4454FB21F93F9F
:10406000E2652F227F2B7A3C075C143326A6813C25
:10407000BDCBF07A8807703C075C143326A6913CD0
:10408000C4EB98999999C9BF711623FEC671BCBF3C
:104090006D9A74AFF2B0B3BF9AFDDE522DDEADBFA4
:1040A0002F6C6A2C44B4A2BF0D5555555555D53FBC
:1040B000FF8300922449C23F6E204CC5CD45B73FD7
:1040C000513DD0A0660DB13FEB0D76244B7BA93F4F
:1040D00011DA22E33AAD903F00000000000000003A
:1040E0000041000800000020FC00000084380008A7
:1040F000FC410008FC000020FC0A00009438000885
:1041000000000000000001000000000000000000AE
:10411000000000000000000000000000000000009F
:10412000000000000000000000000000000000008F
:10413000000000000100000000000000000000007E
:10414000000000000000000000000001000100016C
:104150000001000100010001000000000000803F9C
:10416000000000000000000000000000000000004F
:10417000000000000000000001000000000000003E
:10418000000000000000000000000000000000002F
:10419000000000000100010000000000000000001D
:1041A000000000000000000000000000000000000F
:1041B00000000000000000000000000000000000FF
:1041C00000000000000000000000000000000000EF
:1041D0000102030401020304060708090204060899
:1041E00000A24A04000000000000000001020304D5
:0C41F000060708090000000000000000A5
:04000005080000ED02
:00000001FF
